:020000041000EA
:1000000000B5324B212058609868022188439860DF
:10001000D860186158612E4B002199600221596106
:100020000121F02299502B49196001219960352056
:1000300000F044F80222904214D00621196600F024
:1000400034F8196E01211966002018661A6600F04E
:100050002CF8196E196E196E052000F02FF8012189
:100060000842F9D1002199601B49196000215960AB
:100070001A491B48016001219960EB211966A021F2
:10008000196600F012F800219960164914480160C1
:100090000121996001BC002800D000471248134993
:1000A000086003C880F30888084703B5996A0420EC
:1000B0000142FBD001200142F8D103BD02B5186610
:1000C0001866FFF7F2FF186E186E02BD00000240BE
:1000D000000000180000070000035F00212200005C
:1000E000F4000018222000A00001001008ED00E03C
:1000F00000000000000000000000000074B24E7A12
:1001000000200420F7010010C3010010C5010010F9
:10011000C1010010C1010010C1010010C101001097
:10012000C1010010C1010010C1010010C701001081
:10013000C1010010C1010010C9010010CB01001065
:10014000CD010010CD010010CD010010CD01001037
:10015000CD010010CD010010CD010010CD01001027
:10016000CD010010CD010010CD010010CD01001017
:10017000CD010010CD010010CD010010CD01001007
:10018000CD010010CD010010CD010010CD010010F7
:10019000CD010010CD010010CD010010CD010010E7
:1001A000CD010010CD010010CD010010CD010010D7
:1001B000CD010010CD010010CD010010CD010010C7
:1001C00000BE00BE00BE00BE00BE00BEEFF3058054
:1001D000103800BEF2EB887150730010707300107D
:1001E0003802001090A31AE71E481F49086006C88D
:1001F00081F3088810471D480068002801D019487D
:10020000F3E70DA40ECC002902D000F012F8F9E7B4
:100210001749184A002000E001C19142FCD116495B
:100220008847164988471649884700BEFDE701C937
:1002300001C29A42FBD3704770730010C0000020C7
:1002400070090020207C0010000004200000042021
:10025000207C00100010042000100420000000008A
:10026000704700000000000008ED00E0000000D032
:1002700070090020C813022085390010A103001066
:100280007D390010F8B5C04606480749091A8B1099
:10029000C90FC91810B5491003D0044B002B00D06A
:1002A000984710BD70090020700900200000000070
:1002B000054B10B5002B03D00449054800E000BFF2
:1002C000FFF7E2FF10BDC04600000000F80E00205E
:1002D000B86C0010F0B5C64600B5036882B0984609
:1002E000D0266B460C4D0D4FDC1D36060122210039
:1002F0002868524204F092FC0128F7D12378002BA1
:1003000003D143469840B061F0E73B6801333B605E
:10031000434698407061E9E7200F0020F40E00206A
:10032000F0B583B06B46D025114E124FDC1D2D0663
:100330000FE001222370210000233068524204F0B4
:10034000DBFA012802D0380003F08EFC0A2005F009
:100350006FF96A6800239206EBD4482005F068F92B
:1003600001226B689B06DB0F5340DBB2E1E7C0461E
:10037000200F0020B86C001010B503F029FC00F02D
:1003800083FA00F09DFA00F0B9FA00F0D1FA00F01B
:10039000E1FA024800F012FB10BDC046D46C001018
:1003A00070B582B0FFF7E8FF00220121052004F0BC
:1003B00051FA164B186000281DD0082001F016FED7
:1003C000041E1DD000250D23012680220360057127
:1003D0002B000F4952000F480195009604F054FE7F
:1003E000230080220C490D480195009604F04CFE34
:1003F00004F06AFFFEE70A4C200003F035FCFBE73F
:10040000084C200003F030FCFBE7C046200F002022
:10041000386D001021030010506D0010D50200103F
:10042000F46C00100C6D0010F0B5454657464E4672
:10043000DE46E0B58FB018AD10CD94462F78072575
:10044000267835406A1E9541A8466578F608B0447E
:10045000002D00D192E04646002E00D18EE062468B
:10046000013A0C9201225918DE0091460632A44648
:100470000A96444600268846924619002B0062469A
:10048000D57809947D1B5D4343465B1A9B46AD19A5
:10049000654305355C460B954D460C9B6D1A5B1804
:1004A000059343460794002264468C46390006951E
:1004B0000D9603930B9B0892E518AB5C059F1A0001
:1004C00008250B006146A44605E0013DEDB2520847
:1004D0007F18002D37D04C461442F6D0069CE61902
:1004E000079C0029F1D0E0468B469C460492037895
:1004F000310002959C4217D2427891420ED2CA082E
:100500005343C2684D46019252460A4095402A0024
:10051000019D1B19ED5C2A43019DEA54B94203D0A9
:10052000037801319C42E7D3039B0134029D9C4236
:10053000DDD15946049A013DEDB263465208C446E6
:100540007F18002DC7D10A9D6446A8468C46190025
:10055000059B089A43440593099B01329342A9D114
:100560000F006146A446039B0D9E984663460136E4
:100570005B78F2B2099C88449A4280D30FB0F0BCF9
:10058000BB46B246A946A046F0BDC046F0B5DE4621
:10059000574645464E46E0B50F009A468BB0149B31
:1005A0000600C8B242499B46D3B2394098461B0266
:1005B0000B4351461500D208D2B2140423431B0248
:1005C00009061B0A0B4333605B465043736030617E
:1005D000013001F00BFDF060002867D0354B03AC13
:1005E00003934346013B2371D32363718023DB01D3
:1005F000E3808D232372337A0130F0606D00002B8D
:1006000048D11423BD424BDB1221F12263722A4BE5
:1006100025276381DA2323735A3BFF3BE381593358
:10062000FF332374254B61736382254B62740893F7
:1006300000232376234B6F449846234B02AD994603
:100640000CE0013003D14146204803F091FB013416
:10065000A74217D073689B46F3789A460023227806
:100660002B706A70514600932A000233584603F0FB
:100670008FFC831CE5D141464846013403F078FBEA
:10068000A742E7D101200BB0F0BCBB46B246A94659
:10069000A046F0BD1023BD4205DB12212222B5E7A2
:1006A0000221F122B2E702212222AFE73061EAE71C
:1006B000FF00FFFFAED580A8A1C8FFFFDB30000020
:1006C000A4A6AF20646D0010946D0010746D00102E
:1006D000030010B50021C0681A6901F0ADFC10BD1F
:1006E000F0B5DE4657464E4645460C009446E0B50A
:1006F000002B27D0099A002A24D0984663469146B9
:10070000013B9944072301269B46884403786246AF
:100710009C4214D2417891420BD9D1084B4359469F
:10072000370011408F403900C5681B19EF5C394311
:10073000E954914503D0037801329C42EAD3013455
:100740004445E3D1F0BCBB46B246A946A046F0BD45
:10075000F0B54E4645465746DE46E0B583B00C9DA3
:1007600081462C78924698460E00002C16D05F00E9
:10077000104B47449B467F002300203B01355E2BF6
:1007800013D85B46310001940093524643464846D5
:10079000FFF74AFE2C78F619002CEDD103B0F0BC1F
:1007A000BB46B246A946A046F0BD2C78F619002CEF
:1007B000E2D1F3E7E46E0010F0B5CE4647462123C0
:1007C00080B5027887B004AC2380531EA370222327
:1007D000E3700023237183780500013B6371402A95
:1007E00003D1202363703F33A3701627224B6F443D
:1007F0009846224B03AE994608E0013003D14146AA
:100800001F4803F0B5FA0134BC4213D0002322780C
:1008100033707270E978686832000093023303F035
:10082000B7FB831CE9D141464846013403F0A0FAE6
:10083000BC42EBD140220024EB68013B1A702B69CB
:10084000EA68E97868680133013A009403F0A0FB94
:10085000831C0BD0013004D007B0C0BCB946B046F1
:10086000F0BD0849064803F083FAF5E70549034857
:1008700003F07EFAF0E7C046646D0010946D00103E
:10088000746D0010A46D001010B50B490B4803F0F7
:1008900057FB03210E2000F003F903210F2000F085
:1008A000FFF8002201210E2000F014F9002201219E
:1008B0000F2000F00FF910BD801A0600F003002091
:1008C00000B50A4B83B0009340223C2380210848A6
:1008D000FFF75CFE002804D1064803F049FA03B094
:1008E00000BD054803F044FAF9E7C046F0030020D4
:1008F000CC0E0020B46D0010CC6D0010F0B585B0AA
:1009000001AC2200D0260127084B360623CB23C298
:1009100020CC280000F0F2F83B00AB407362B361DA
:1009200004AB9C42F4D105B0F0BDC046C4700010C9
:10093000D023202210B51B069A6220329A62012130
:100940000022052000F0C6F800220121062000F058
:10095000C1F810BD70B5144C82B02000FFF7B8FE8E
:100960000022124B1A60124B1A60124B1E683000A4
:1009700005F0CAFF104D81002A68411A4900200085
:100980000123083A7E310096FFF7E2FE40232A68F1
:1009900000219B1A200000938023FFF7A1FE200076
:1009A000FFF70AFF02B070BDCC0E0020BC1302207E
:1009B000C0130220A8030020AC030020F0B5464677
:1009C000D6464F46C0B582B0050005F09DFF2F4EBC
:1009D0004400316824182E4B6400621898461B6846
:1009E000802A12DC1A002B4F012338000095FFF7F4
:1009F000AFFE3800FFF7E0FE33681B19336002B02A
:100A0000E0BCBA46B146A846F0BD0022914632602D
:100A10001A00414608320A601F490F338A460968A6
:100A20008B4202DA00211B4FDEE74A464346194F4C
:100A30001A603800FFF74CFE4B464A463360434687
:100A40001A60164B1B681800994605F05DFF534667
:100A50001A684B468100411A49003800083A7E3135
:100A600000930123FFF774FE53461A6840239B1A34
:100A70000021380000938023FFF732FE3800FFF793
:100A80009BFE434631681A68AEE7C046BC1302209D
:100A9000C0130220CC0E0020AC030020A8030020CD
:100AA000094A83009A1810B51468402254408032D5
:100AB0002240064CC000A44663441A60044B9C4686
:100AC0006044416010BDC04604C0014004D00140F4
:100AD00000400140074B8000C3181B68C90092000A
:100AE0000A435A400C231340034A9446604403606F
:100AF0007047C04604C0014004D001400123D02209
:100B00008340120693629361094A83009A18116820
:100B10004022514080320A400649C0008C4663445E
:100B20001A60054B9C460523604443607047C046ED
:100B300004C0014004D00140004001400FB400B5A2
:100B4000084883B003F090F8049B002B07D005A958
:100B50001800019102F0DEFE034803F085F8012041
:100B600002F0F0FE006E0010106E001010B501488B
:100B7000FFF7E4FF146E001070B5EFF3108C72B63F
:100B80000D4D2B68002BFCD0BFF35F8F0724CB08E3
:100B9000C618C05C01230C40A3401C000440034263
:100BA00007D118433070BFF35F8F2C608CF310882F
:100BB00070BD1000FFF7C2FF2C0100D0044A10786E
:100BC000431CDBB2172B00D9102313707047C046AB
:100BD000B00300200021044B044ABFF35F8F02C31F
:100BE0009342FAD17047C046000100D0800100D086
:100BF000054B064A1360064A136053609360D36046
:100C000013615361936170478080808000E400E04D
:100C100004E400E01F2318401E3B8340002905D058
:100C2000C021044A49005350136070478022014993
:100C30008B50FAE700E100E070B50D00EFF310868D
:100C400072B60F4A1368002BFCD0BFF35F8F0D4BB9
:100C500010309B6884001B590B4A934203D09D427D
:100C600001D000F00FFD074B9B681D51BFF35F8F54
:100C7000BFF35F8F0022024B1A6086F3108870BDAD
:100C8000240100D000ED00E0CD010010024B9C4695
:100C9000614489000160704740000034F8B5124C8F
:100CA000124DAC4212D20126002776422368002B57
:100CB0000DD0FFF783FF01002000FFF7E7FF66601C
:100CC0002772BFF35F8F0C34AC42EFD3F8BDFFF750
:100CD00075FF01002000FFF7D9FF6660BFF35F8F4B
:100CE0000834AC42E2D3F1E760090020700900202B
:100CF000F0B5DE4657464E464546E0B587B0EFF3C1
:100D00000583032201251A40954091008846A94693
:100D1000B34B03925C58B34B1D60B34B04934B46EB
:100D2000B24843630823E55E002D37DAA3881BB27F
:100D3000002B00DBADE0A379002B00D0EEE0082310
:100D4000E05E002820DB430062691B18DB00D3183B
:100D50009E68DD68731C00D111E1A4480100414484
:100D6000826A0B69B71A9B1A9F4215D30123026A44
:100D7000039883401A420FD09C4800F0DBFA8D4262
:100D800002DCCCD18642CAD940BF07B0F0BCBB461A
:100D9000B246A946A046F0BD0E61EDE762696B0060
:100DA00092465B19DB009A4453469E68DF6800F068
:100DB000C1FA8F42BADC00D103E1002F00DAE8E08B
:100DC0005246534652691B699346049A934200D196
:100DD000D9E052460821605E52880004594610430B
:100DE0009847009001910099019A0B00100013435D
:100DF00000D1CEE013000A00B61A9F41002806DB9E
:100E00007A4800F097FA009E019F36184F415346EA
:100E10009E60DF6000229A5E002A00DA86E75300B7
:100E200099186069C900411802938B68C9689B468C
:100E3000B94200DD7AE702D1B34200D976E7082350
:100E40009C46A444059565462281A446029B2C003D
:100E500006E053009918C90041188D68C968AB466F
:100E60009B18DB00C318B94206DC00D1B3E01C00BC
:100E70000023E25E002AECDA230064469C465346D7
:100E80001A806346059D1D80A3881BB2002B00DAE3
:100E900051E72269EFF3108172B61368002BFCD082
:100EA000BFF35F8F0123A7885B42A3803FB2236912
:100EB000BFF35F8F00221A6081F31088002F00DAE1
:100EC00039E72300083322009A4666697B00DB1964
:100ED000DB00F318996850468C460824115FDD68E2
:100EE000002910DB029306E0AB4244D00023E15E10
:100EF0002000002906DB4C006418E4003419E36884
:100F0000AB42F1DD029B078000201F5E1980002F9D
:100F1000DCDA1400A379002B00D110E70023A371C1
:100F200026000823E15E08364B1C00D12CE70800A0
:100F3000A246656902E03E004B1C1AD04B005B18CC
:100F4000DB00EF180A008C46E95E7B881BB2002BA1
:100F5000F1DA01235B42DC17BB60FC60824205D002
:100F6000534631801B893B8053461A8160464B1C97
:100F7000E4D15446E5E6A3686345B7D9C2E76B1CE4
:100F800000D0EAE6F8E65B4658461B699847002819
:100F90001BD153461B8822692381EFF3108372B65D
:100FA00011680029FCD0BFF35F8F514662880A8028
:100FB00022696580BFF35F8F0021116083F3108881
:100FC000B4E6864200D8F8E6B0E65B461A685B688D
:100FD0000092019307E7B34500D848E74CE7C046C5
:100FE000100F00203C700540F10C0010004005403F
:100FF000074810B50268EFF3108172B61368002B32
:10100000FCD0BFF35F8F03F01DF90020002110BD5D
:10101000CC12002070B52E4C2569002D04D00A2179
:101020002C48FFF733FE70BD2B4E0321300000F03B
:1010300077F9E660FFF7C2FD284B03229C46D023D8
:1010400022701B061B6801216370254B6044A3605E
:101050000F23800020610220638063694942A180E0
:1010600019800231198647311D83585218315A525E
:1010700075325C3999521832013199521832013166
:101080009952183201319952083518329D52023165
:10109000183299521832013199521832013199524D
:1010A00018320131995218320131995218320131F6
:1010B00099520C4B0C49DC6001303562FFF7BCFDE6
:1010C00001210320FFF7A6FD084B1D60A7E7C046DE
:1010D000B4030020CC120020004005404000003442
:1010E000FFFF1000100F0020F10C001038600540C9
:1010F00070B501000469EFF3108C72B62068002807
:10110000FCD0BFF35F8F02200D5E4C696800401970
:10111000C00024180869002D36DB26884E80BFF3F6
:101120005F8F002606608CF31088E3606388049864
:10113000013320615B0405985B0CA26060611A1C9E
:10114000002B1FD093B22804628018430A69EFF382
:10115000108C72B61368002BFCD0BFF35F8F8B88A6
:1011600023808D800B69BFF35F8F00221A608CF3A0
:1011700010880B7801329A40CB6808498C4663444A
:101180001A6070BD0122DDE7BFF35F8F00230360AB
:101190008CF3108801204042F3E7C0463C20000059
:1011A00010B543890A1493421ADD53009B18426913
:1011B000DB00D3180469EFF3108C72B62268002AA2
:1011C000FCD0BFF35F8F5A88090494B2090C8A429D
:1011D00008D00369BFF35F8F00221A608CF3108878
:1011E000002010BD8022120214435C80012302699A
:1011F0008371BFF35F8F002111608CF31088044965
:1012000002788C469340C268012062441360E8E78C
:101210003C200000F0B557464E46DE464546E0B558
:1012200006000F0085B0EFF3058399468B46002B2F
:1012300012D0384900204B6ABB4206D38A6ADB1BB6
:10124000591E8B41B2424041184305B0F0BCBB4629
:10125000B246A946A046F0BD2F4B9A46DB68984699
:1012600053461B784046039300F064F84246039BC4
:10127000040004339B009B580D001B1A39003000FA
:10128000001BA941894510DC0DD020BF214A002058
:10129000536A5B45D9D3926ADB1B591E8B41B2421C
:1012A00040411843D1E78342EFD900F04BF83200B8
:1012B0003B00121A8B41002B1ADB00230193174BC2
:1012C0003200009350463B00FFF712FF011E0FDD76
:1012D000104B5A6A5A451BD39B6AB34216D35046E9
:1012E000FFF75EFF0B4A0020536A5B45ADD3D2E7A0
:1012F000084A0020536A5B45A7D30020926ADB1B93
:10130000B24240415A1E934118439EE75A45E6D1E6
:1013100020BFE4E700400540B4030020F10F0010B7
:1013200010B5024A0248FFF727FC10BD246E0010DA
:10133000A00E00200300416A0A00986A596A8A4296
:10134000FAD17047034B596A0A00986A596A914268
:10135000FAD1704700400540F8B5DE464E46574684
:101360004546E0B58B4605000A991800160000F0C6
:101370008FFA0A9B6C001F02324B64199C46A40032
:101380006444636881469F4200D967602B1FDBB2CB
:101390009846012B30D9C02380229B01E31812010B
:1013A0001A60294BAD0059599A4600291BD1730187
:1013B000E026226853401E40802342465B01E3182A
:1013C0001E60012A30D9802380229B01E31812017C
:1013D0001A6053464A4667605A51F0BCBB46B24653
:1013E000A946A046F8BD586900F052FA0130430002
:1013F0001B18033BFDD2DAE75B46012BCBD1C023A0
:1014000003229B01E3181A60023AA3681A42FCD037
:101410007301E0262268AD0053401E4080230A4A33
:101420005B019246E3181E605A4621685140032230
:101430000A401A6001225B469A40A3681A42FCD017
:10144000C1E7C04600800040A40E0020F0B546462B
:101450004F46D646C0B51F00344B44009C46241866
:10146000A4006444636888461600FF2B02D88023DA
:101470005B006360031FDBB29A46012B30D9C023A7
:1014800080229B01E31812011A60294B85005959EB
:10149000994600291BD17301E026226853401E4063
:1014A000802352465B01E3181E60012A30D9802355
:1014B00080229B01E31812011A6080235B006360A5
:1014C0004B465F51E0BCBA46B146A846F0BD5869EC
:1014D00000F0DEF9013043001B18033BFDD2DAE7D0
:1014E0004346012BCBD1C02303229B01E3181A6092
:1014F000023AA3681A42FCD07301E02622688500F4
:1015000053401E4080230A4A5B019146E3181E6047
:1015100042462168514003220A401A600123424694
:101520009340A2681342FCD0C1E7C046008000404F
:10153000A40E0020014B8000C0587047A40E00206C
:10154000F8B5040021481E0017000D0000F0A0F9B6
:101550000100380000F09CF9069B36041B031E4373
:101560002368002B20DB1A4B1A49E3185A1E9341BB
:101570008022920194465B421B0B174A1B03634473
:101580001360164A13601F000A689743FBD1144B7F
:101590002560E2182123A06013602368002BFCDA89
:1015A0000823E6601360F8BD3F2322681340AB4276
:1015B000D9D1A3681B051B0D8342D4D1EE22E36869
:1015C000D2021340B342CED1EDE7C046001BB700B4
:1015D0000040FDBF08C0004000E0004000F00040B7
:1015E000043000008023024A9B000B43D362704703
:1015F00000800540002310B50100988A1B8B984796
:1016000010BDC046162310B50100188802331B8890
:10161000984710BDF8B54746CE4680B50F1E18D086
:1016200014239946043304000025012698464B46AE
:101630001888434621681B88984701C4431E984177
:1016400001350640AF42F2D13000C0BCB946B046C9
:10165000F8BD0126F8E7C046AA23064A1B0113601D
:101660008D235B00D3600449044B19605368002B41
:10167000FCDA70470040024000B0FA00006002400F
:101680007047C04610B50148FFF758FA486E001081
:1016900070B5074D074EB54209D20024013E761BB6
:1016A000B60808CD984723000134B342F9D170BD84
:1016B000706C0010AC6C0010054B064A06491A60AD
:1016C000064A074B1A6010000B689843FBD170471D
:1016D00000E00040BFCDFBFE08C00040FE7F3C00A4
:1016E00000F00040044BDB6C002B03D18022034B45
:1016F000D2021A607047C046000011504C201150B1
:10170000044A054B1A60054A1368DB018033FBD19C
:101710007047C046FFFFFF0100F0004008C00040D6
:101720004022034B9A675A671A67DA667047C046C9
:1017300000F0014010B5FFF74DFA10BD70B5044D33
:10174000044CA968C022200000F07CFCAC6070BD95
:1017500000ED00E000000020002310B5294C82B00D
:10176000A367FFF779FF0122274B1A60636C012BF7
:10177000FCD10322254B1A60224A936B012BFCD12A
:10178000013300930121224A22480433FFF7D8FE97
:10179000052301210093204A2048FFF7D1FE0022B3
:1017A000022104201E4BFFF751FE002201210520DB
:1017B0001C4BFFF74BFE0022002107201A4BFFF7BE
:1017C00045FE002200210820174BFFF73FFE802333
:1017D000DB000093002200210920134BFFF7BCFD22
:1017E0000022104B00210620FFF730FE0420FFF7F7
:1017F000A1FE0E4900F04CF801000020FFF7F2FEB8
:1018000002B010BD008000403CB0004030B000404D
:10181000002F685900800240008C864700C00240BB
:10182000001BB70040597307006CDC0240420F00F8
:1018300001480421014B1847D00300201516001061
:10184000124A936F9B0815D29066D166002905D085
:10185000FFE7FFE7FFE7516F106F704704B5802186
:101860000906C2175140002800D0C84305F0E8F926
:10187000002104BDF0B5146E556E576F166FFFF75B
:10188000E3FF1466556657671667F0BD000000D089
:10189000114A936F9B0813D210665166002905D038
:1018A000FFE7FFE7FFE7516F106F704704B50028AF
:1018B00001D00020C04305F0C3F9002104BDC0469B
:1018C000F0B5146E556E576F166FFFF7E5FF14668F
:1018D000556657671667F0BD000000D094464A4A27
:1018E000926F9208624601D228E0C046F0B5464E9B
:1018F000346E756E776F366F00F020F89446424A6A
:1019000014665566576716676246F0BD94463E4AB0
:10191000926F9208624601D254E0C046F0B53A4E4A
:10192000346E756E776F366F00F04CF89446364A19
:1019300014665566576716676246F0BD002B24DBB8
:1019400011D000293EDA00B5C943404200D101312F
:1019500000F038F8C943404200D10131DB43524224
:1019600000D1013300BD002AEBD1002801D10029AC
:1019700005D00020C90FC90701D1C043410800B5F7
:1019800005F056F90022002300BD00B500290ADB4E
:10199000DB43524200D1013300F014F8C943404206
:1019A00000D1013100BDC943404200D10131DB43C8
:1019B000524200D1013300F005F8DB43524200D11E
:1019C000013300BD002923D1002B18D1002A0CD0EF
:1019D000BC460D4F38667A6600210023FFE7FFE71B
:1019E000FFE77A6F386F67467047002801D00748D5
:1019F000010000B505F01CF90022002300BD020023
:101A00000B00002000217047000000D0FFFFFFFF07
:101A1000002B00D0BFE0130C28D1002AE7D080B4FF
:101A2000114F39667A66FFE7FFE730B4040C7B6F2D
:101A3000396F1B0423433B667A66FFE7FFE7FFE746
:101A4000C04684B27B6F3D6F1B0423433B667A66BE
:101A5000FFE7FFE7C04600232C042D0C7A6F386F98
:101A600000196941B0BC7047000000D0F0B5944641
:101A70000025140E01D112020835140F01D11201F4
:101A80000435940F01D192000235D40F01D15200D8
:101A90000135D40B0134254F7C66254C3C660E0C79
:101AA00093B2FFE7FFE7FFE73C6F6643360C77032F
:101AB000BE467343DF0B5B04C01AB941130C73437A
:101AC000DB18C91ACE086643360CB64493B273438A
:101AD0001F0F1B01C01AB941130C73431F0B1B05C9
:101AE000C01AB941860D8F023E436643360C092D5C
:101AF00024DB520A7243801A7703460A6643360C87
:101B000016235B1BDE40DF40BF1964466643821B21
:101B10007046043506330100D940A840C01900D3EF
:101B20000131A24206D20023F0BD0000000000D027
:101B3000FFFFFFFF121B0130F3D3F1E709277F1BE3
:101B4000FE406446A2B27243801A00D20139220CD0
:101B50007243130C1204821A99410B00704604352B
:101B600013370100F940A840801900D30131002B40
:101B700002D1A2420AD2F0BD013000D30131121BC2
:101B8000FAD2013BF8D1A24200D2F0BD013000D31D
:101B90000131121BF7E7F0B51C0C00D080E00CB44B
:101BA00000251C0A04D11B02160E3343120208350D
:101BB0001C0B04D11B01160F3343120104359C0B7F
:101BC00004D19B00960F334392000235DC0B02D107
:101BD00092185B4101351C00971864410134464F4F
:101BE0007C66464C3C660E0CFFE7FFE7FFE7C0460D
:101BF0003C6F6643360C7703BE4697B27743C01BF3
:101C000000D20139C01B00D201399FB27743C91BF2
:101C1000C91B170C77437E04FF0B801BB941CE080C
:101C20006643360C0C2D33DBB644120B1F053A43CA
:101C30001B0B97B27743C01B00D201399FB2774389
:101C4000C91B170C77433E043F0C801BB941860D1E
:101C50008F023E43664329277F1BFE400C3D77469B
:101C6000AF40BF1930BCA2B2ABB272437343801A0B
:101C70009941220C7243130C1204801A99410200FC
:101C80000B000137001BA941F9D2781E0021F0BDDD
:101C90000C277F1BFE4077467F0BAF40FF19E0E724
:101CA00000245D1C07D0144F7D663966FFE7FFE70F
:101CB000FFE7FFE73C6F95B29EB265436643401B6A
:101CC000B141150C1E0C6543664336042F0C3E4390
:101CD0002D04401BB141994204D202000B002000A8
:101CE0000021F0BD01D19042F7D3801A994101340F
:101CF0009942F2D3F6E70000000000D0FFFFFFFF9B
:101D000048404140484018B4134B5B68019308BDFC
:101D100018B4114B1B68019308BD94460F4A926F8B
:101D2000920805D2624618B40B4BDB68019308BDDC
:101D30000A4AF0B5146E556E576F166F6246FFF77C
:101D4000F2FF064A1466556657671667F0BD18B469
:101D5000014B9B68019308BDF00A0020000000D0F1
:101D6000FFB550404240504059404B40594000E080
:101D7000FFB5154F4C00640D03D0BC4204D10C03D9
:101D800014D80020090D09055C00640D03D0BC4285
:101D900004D11C030AD800221B0D1B0501264B4051
:101DA00009D44B4003D58B4200D18242FFBD9942FA
:101DB000FCD19042FFBD0B43DB1803431343F5D026
:101DC000C9434918FFBD0000FF07000000B5FFF739
:101DD000CFFF804100BDC04600B5FFF7C9FF01D964
:101DE000002000BD012000BD00B5FFF7B9FF01D9FB
:101DF000002000BD012000BD00B5FFF7B1FF80410C
:101E000000BD012040054A00121804D85A001218DB
:101E100001D80020704701207047000000210028F1
:101E200005D17047C1174840401AFAD0C90713B509
:101E3000064B1B6898470CBC441CA2401005120BB3
:101E40000349091B09051943114310BDC81100209E
:101E50001F04000010B54C00620D8023D218DB0077
:101E6000D21A5B057E2A10DD9E3A13DACC170903DD
:101E7000490819435242D140640001341532202AE6
:101E800005DAD0400843604310BD002010BD08466D
:101E9000604310BDC80FC018013810BD18B4024B04
:101EA0005B6A019308BD0000F00A002010B50148EC
:101EB000FEF744FE546E0010132370B51D78012DFB
:101EC00019D014DD1D48FFF79DFB06001C48FFF7E5
:101ED00099FB1C4C80223100200000F0B3F8022D49
:101EE00006D01948FFF786FB184B186070BD154CDB
:101EF000174BA364F5E7174B124C23606360A36094
:101F0000E36023616361A361E36123626362A362AF
:101F1000E36223636363A363E36323646364A3648F
:101F2000E36423656365A365E36523666366A3666F
:101F3000E36623676367A367E367D9E75344000059
:101F400053460000F00A00204C330000C811002066
:101F5000591F0010AD1E001007B5604601880A0A1F
:101F60000230DF2AFAD1C9B2820804D3028840883D
:101F70000004104300E00068014A5050039007BD80
:101F8000F00A002010B50148FEF7D8FD906D001052
:101F9000132310B510481C78FFF734FB0100012C07
:101FA0000AD003DD80220D4800F04CF80C48FFF702
:101FB00021FB0C4B186010BD084C5422200000F08F
:101FC00041F82200084980322368002B00D12160AB
:101FD00004349442F8D1E9E753460000CC110020C4
:101FE0004C330000C8110020851F001070B504009C
:101FF0000A4E300004F034FE200004F05BF90500C6
:10200000300004F00DFE002D05D0054B2C199C422C
:1020100001D8280070BD0348FEF790FD600900203C
:10202000000004206C6E001001480421014B184789
:10203000E003002015160010014B1B681847000034
:10204000E0030020014B5B6818470000E00300201C
:102050007047C046F8B55746DE464E464546E0B5A1
:1020600099460A9B07009A460D9B884693460B9C0F
:102070009B073BD10C9B9C423DD21E1B0B94150031
:102080000C005E442A004B46013521002020B84751
:10209000B542F7D1A0460B9C002C20D045463619FE
:1020A0005346321B013C185D29004B46B847002CB3
:1020B000F6D12B00350098460D9B9B070FD55B464C
:1020C000EC1A0C9BA3420AD9464698462A004B4676
:1020D000310020200134B84701354445F6D32800AB
:1020E000F0BCBB46B246A946A046F8BD1600150096
:1020F000002CD3D1E0E716001500002CCED1EEE77E
:10210000F0B54546DE4657464E46E0B585B09C469E
:1021100010AB1B78149F934698460F9C129E139DFC
:10212000BB074CD4002D42D1B44248D201233B40DE
:1021300099460E9B013B9A46302304E052460134F7
:102140001355A64201D9202CF8D14B46002B00D1C3
:1021500083E00E9B013B99463023A54205D82EE033
:102160004A4601341355AC4229D0202CF8D1FB0645
:102170000CD57B0554D4A64263D0A54261D0119BF7
:10218000102B50D0022B57D0202C32D1202301937A
:102190000E9B5A460093039763460295FFF75AFF3A
:1021A00005B0F0BCBB46B246A946A046F0BD01232F
:1021B0003B40994601233B422AD1B442B9D3FB06A6
:1021C0001CD57B05DBD4002CD5D1119B102B5BD00B
:1021D000119B022B6BD0302301240E9A13704346BF
:1021E000002B10D17B073ED52B260E9A631C16556B
:1021F000CDE72300013430260E9AD654202CC5D0CA
:102200004346002BEED02D260E9A631C1655BEE7D2
:102210004346002B2FD0013DB44200D289E798E716
:10222000119B102BB2D1BB0637D5202CAED0582332
:102230000E9A13550134A7E7202CA7D023000134B0
:1022400007E0631E012CC0D0119A102A31D0022A57
:10225000D1D162260E9AD65496E7FB06CED57B05E1
:1022600000D488E78BE723003E0790D520260E9AFE
:10227000013316558BE70C233B405A1E9341ED1A50
:10228000B44200D255E764E7BB060ED478230E9A19
:102290000224137030235370A1E7202C00D175E77E
:1022A00078230E9A135501346EE75823EFE7603315
:1022B000EDE70E9AA61E91464E44BA0602D5582264
:1022C000327098E77822327095E7C04610B5002842
:1022D00000D110BD01F07EFCFBE7C0460B0010B53D
:1022E000002802D049681B68984710BDF0B55746D2
:1022F000DE464E464546E0B595B083460F00924611
:1023000098461E9A1F9B10001900209EFFF779FD2A
:10231000002800D0EAE11E981F990122C54B5242C5
:10232000FFF754FD002800D014E11E981F990122E8
:10233000C14B5242FFF760FD002800D0E9E01E9833
:102340001F990022BD4BFFF757FD002800D0C8E0C1
:102350001E981F990022BA4BFFF738FD002800D0C5
:10236000BFE01E981F9900220023FFF72FFD0028D1
:1023700000D0E4E000230B93229B5B0500D40626EB
:102380000024302307E0172106AA01345218135500
:10239000013E202C01D0092EF5D81E981F99FFF779
:1023A00059FDA84BF2009B181A685B68050008925B
:1023B0000993FFF737FD02000B001E981F99FFF7E6
:1023C000A2FC089A099BFFF7C2FC06900791FFF751
:1023D00065FD8146FFF722FD02000B000698079974
:1023E000FFF791FC0022984B06900791FFF704FD40
:1023F000002800D10DE101239C46E1444846FFF747
:102400000DFD02000B0008980999FFF7E5FC002874
:1024100002D0002399460135002E00D1D9E006955F
:102420004D46B94614E006AA944617230A21634490
:10243000280001341F19FFF72BFA303139702800BA
:102440000A21013EFFF724FA092D00D817E1050003
:10245000202CE8D14F46069D20240CAE06AA172357
:102460009446634499465B46B34606930FE04B4659
:1024700028000A210134E618FFF7E2F9303128007C
:1024800031700A21FFF7DCF9051E00D1E4E0202CB1
:10249000EDD1069B5E469B460323229A1340012BF7
:1024A00018D1219B002B15D00B9B002B00D1FDE0F8
:1024B000219B013B2193202B0CD93023219A07E04B
:1024C000172006A9013409180B55944200D3CCE01B
:1024D000202CF5D1229B01940393219B009602931B
:1024E00022E0229B52460493219B390003935846D5
:1024F0001E9B1F9C029600930194434600F04AF9EC
:102500000400200015B0F0BCBB46B246A946A04668
:10251000F0BD229B5B070FD403224C4B2299019202
:10252000039121990093029143465246390058463F
:10253000FFF790FD0400E4E70422454BEEE71E9A06
:102540001F9B00200021FFF7DEFB01231E901F913F
:102550000B9311E7229B54469B0711D1219B042B1F
:102560000ED9219B55469C465E46043C64442A0095
:102570004346013539002020B047A542F7D1B34684
:10258000344D26002B1F99465B46A3461C003200A3
:10259000E87843463900013DA04701364D45F6D164
:1025A00023005C469B46229B04349B07A9D55346D7
:1025B000219AE31A9A42A4D95E46150022004346A6
:1025C00039002020B04753460134E31A9D42F5D824
:1025D00097E72800FFF726FC02000B001E981F99C2
:1025E000FFF791FB0022184B06900791FFF7EEFBD7
:1025F0000CAE002800D031E7069807990022124B54
:10260000FFF7FAFB002800D028E7012301359D439E
:1026100024E70022069807990B4BFFF7D7FB002809
:1026200000D0F9E64B46002B5CD101239C46E144E7
:10263000F2E6C046FFFFEFFFFFFFEF7F65CDCD4124
:1026400065CDCDC1D07200100000E03FC46E001017
:10265000BC6E0010CC6E0010069B5E469B460323AA
:10266000229A1340012B00D181E0202C00D131E7C8
:102670000B9B002B27D02D23335501342AE74F46DF
:10268000069D202C00D1E7E63022331907E0172001
:1026900006A9013409180A55202C00D1DCE6A34212
:1026A000F5D12E220CAE0134F254D7E60C23229A37
:1026B000134257D0219B013B2193A34200D9FCE652
:1026C000202C00D106E7229B5B0703D52B23335533
:1026D0000134FFE6229B1B0700D4FBE62023335581
:1026E0000134F7E6DB0700D496E69EE7229B5546C9
:1026F0009B0711D1219B032B0ED9219B54469C464D
:102700005E46033D654422004346013439002020E3
:10271000B047AC42F7D1B346B9465F461C4EEC1CFD
:102720002A00B078434649460135B847013EAC42DD
:10273000F6D1229BBB464F469B0700D4E1E65346A9
:10274000219AE31A9A4200D8DBE65E461500220081
:10275000434639002020B04753460134E31AAB42C8
:10276000F5D3CEE6219BA34200D9A6E6B2E6219B93
:10277000002B00D179E70B9B002B97D0219B013BCD
:1027800021939C4200D298E6202C00D073E7A1E66A
:10279000C86E0010F0B5DE4657464E464546E0B5D9
:1027A00099B081468B4692469846229A239B100008
:1027B0001900FFF726FB002800D0CAE022982399D1
:1027C0000122824B5242FFF717FB002800D0C0E0E5
:1027D0002298239901227E4B5242FFF7F7FA0028F4
:1027E00000D0B6E02298239900220023FFF7EEFAEA
:1027F000002800D0C9E1229B239C089309940898E3
:1028000009998023269ADB001A400D928022269C8B
:102810001201144022000B94269C07000E001C425B
:1028200000D0ADE00B00034300D0D5E0002A00D07B
:102830000AE2220006332493022313400C9302235E
:10284000134200D002E2259B042B00D20FE2043B8E
:102850000B93002304250A93002222982399002336
:10286000FFF7B4FA002800D003E25A4B269A13402F
:1028700004930B9B0393249B0293089B099C009356
:1028800001945946434652464846FFF72FFD020041
:102890002020269B1F27034059424B415B42184092
:1028A000531C0893594643464530C8470A9AD317E4
:1028B000D4185C40D30F0A936B1E0B9308AB9C4655
:1028C0000025674401E0202D0FD020000A21FEF7EB
:1028D000DFFF01357E193031317020000A21FEF70B
:1028E000D7FF26000400092EEDD8052306930B9B85
:1028F00059460593002304930A3303930A9B4846E1
:10290000029310AB0093089A43460195FFF7F8FB3A
:102910000C9B002B2DD05346C41A259BA34228D9CB
:102920004D465F4681461E00534639001A19202045
:1029300043460134A847A642F6D85346484625994F
:10294000C21A01320023914200D386E101301818E7
:102950000FE0269B0493259B0393249B0293229BC9
:10296000239C009301944346524659464846FFF73C
:10297000BDFC19B0F0BCBB46B246A946A046F0BDAE
:1029800001432BD10B9B2200002B00D154E70023E5
:102990000A93249B0A9A0024934200DD85E1229841
:1029A000239900220023FFF711FA002800D035E117
:1029B000269B084A02941A408023DB0013430493A9
:1029C000259B0393089B099CCBE7C046FFFFEF7F45
:1029D000FFFFEFFFFFF7FFFF06232493B44B7000C8
:1029E0009C46400D6044FFF71DFAB24AB24BFFF718
:1029F000AEF9B24AB24BFFF78BF93603B14B360B47
:102A0000334304000D00380019000022AE4BFFF7DD
:102A10007AF9AE4AAE4BFFF79AF902000B0020009C
:102A20002900FFF775F9FFF715FA0A90FFF7FAF991
:102A3000A84AA94B04000D00FFF789F90022A74B13
:102A4000FFF766F9FFF706FAA54A0600A54B200036
:102A50002900FFF77CF9040030000D000C96FFF709
:102A6000E1F9A14AA14BFFF772F902000B00200027
:102A70002900FFF748F902000B0006000F00FFF7DE
:102A800066F9320004000D003B0030003900FFF70A
:102A90003FF900220E900F91954B20002900FFF77F
:102AA0003CF90022934BFFF733F902000B002000A2
:102AB0002900FFF732F900228F4BFFF729F90200B6
:102AC0000B0020002900FFF728F90D0080210400E9
:102AD00032003B000020C905FFF715F902000B008A
:102AE00020002900FFF714F902000B000E980F993F
:102AF000FFF713F90022734BFFF70AF97F4B0C9C89
:102B00009C46644400222305FFF721F906000F00CC
:102B100002000B0008980999FFF758F900280AD01D
:102B20000A9B3000013B39000A930022714BFFF7EA
:102B3000F4F806000F000A9A330063323900C62AFF
:102B400012D802222698042510400B9A0C90002AD5
:102B500025D1259B042B05D9002800D0A1E0259B79
:102B6000043B0B93042541E00222269810400B9A67
:102B70000C90002A12D1259B052B76D9002872D102
:102B8000259B0525053B0B9334E0802212069446D5
:102B9000229B0893239B6344099330E605250B434E
:102BA00000D1F6E608980999554A564BFFF71CF9EB
:102BB000002808D0089809990022534BFFF706F91E
:102BC000002800D0E5E6249B002B1CD00D9B002B99
:102BD00019D0249B013B2493259BAB4204D90C9B29
:102BE000002B5AD002230C9300230B930A9B002B3B
:102BF00000D131E60898099932003B00FFF78DF8C3
:102C00000890099128E6259BAB42EDD90C9B002B3F
:102C100043D000230B9302330C93E7E78020269BDD
:102C20003A4A00061A40802384460294089C099D73
:102C30002900DB0013430493259B61442200039386
:102C40000B00009201938EE60524A8E600230B9367
:102C50000A93023304250C93FEE553468C46013B50
:102C600063441B1A72E602230C930525C2E7042372
:102C7000EDE58020089E099F000639008446269ACB
:102C8000224B6144134004930B9B32000393249B1B
:102C900002930B0000920193F3E5259B5B1B0B93C2
:102CA000A4E7022304250C93A0E79C1A013C76E6D6
:102CB00001FCFFFFFB799F501344D33FB3C8608BE7
:102CC000288AC63F0000F03F0000F83F61436F6371
:102CD000A787D23F71A379094F930A400000E03FD4
:102CE0001655B5BBB16B0240EF39FAFE422EE63FF6
:102CF00000002C400000244000001840FF030000AA
:102D00002D431CEBE2361A3F80842E41FFF7FFFF74
:102D1000F0B5DE4657464E464546E0B5A5B01E0026
:102D20002E9B92460C93CD4ACD4B80468B461A6023
:102D3000002900D1EAE1002330789946002800D12B
:102D4000ECE1C84B4C460B93C74B454657460E9398
:102D50000AE0631C984622003B005946A8474446B7
:102D60003078002800D187E001362528F1D10823EA
:102D70009A46043B9946023B9846013B00229C46FA
:102D80000D943078711C0300203BDBB2102B03D86C
:102D90000B9C9B00E3589F460300303B89460D9CEB
:102DA000092B3AD9002398462A2800D1C1E00023F4
:102DB0009A462E284BD00300683BDBB2122B1ED85C
:102DC0000E999B00CB589F4663460E001A43D8E7E6
:102DD00043460E001A43D4E74B460E001A43D0E791
:102DE00010230E001A43CCE753460E001A43C8E7DF
:102DF00080235B001A43FF3B9C467078E1444E46BB
:102E000067284FD82428A4D90300253BDBB2422BE6
:102E10009FD896499B00CB589F46002394461E009E
:102E200000E00131B3009B195B001E180878303EAA
:102E30000300303B092BF4D90123624689469C46A6
:102E40000023B0469A460E00E1442E28B3D130212B
:102E5000802049428C46C000024370784B4684442F
:102E60006146092900D86CE12A2800D17AE10123C2
:102E70009C464E46E1449EE7A146A846BA46CA454E
:102E800003D801235B425344994653464A46594668
:102E90000020C047200025B0F0BCBB46B246A94682
:102EA000A046F0BD0300693BDBB20D930F2B00D9A8
:102EB0004FE7012199408C466D49894661464B4652
:102EC00019400F91634649460B4200D028E10D9B03
:102ED0000A2B3AD0072B00D03BE70C9B190008C9FE
:102EE0008846002B00D14BE121200243914614A9D2
:102EF0008C461F220F2162448C4651460D950C9141
:102F0000A24615000F9902E020290CD01300644658
:102F10001C4020003730092C00D807380131685494
:102F20001A090F2BF0D80C9B54460D9D9A460F9111
:102F300033E10C9B02CB8846002947DB0C9301232D
:102F40009C4670784E46E14431E70C9B02CB1493CB
:102F50005346002B00D138E19C4608780B000C90BA
:102F60008C44002801D100F098FC894661469446C3
:102F700003E05A780133002A01D08B42F9D1494647
:102F800062465B1A0C900F93530500D520E1022393
:102F9000180010400D90134200D1CBE30D930B1B92
:102FA000B1469A465E460C9822003B003100A84785
:102FB00053460134185D0028F6D1B3464E460D9BAA
:102FC000002B00D0C7E1149B0C93C9E60C9301239E
:102FD0009C46283849420243884670784E46E14470
:102FE000E5E670786C2800D17FE180235B001A430E
:102FF000FF3B9C46E14402E780239B001A430123E8
:103000009C467078E144FAE67078682800D173E154
:1030100080231A437F3B9C46E144F0E6672800D1B9
:1030200003E1472800D15AE1452800D15AE1049232
:10303000072142460C9B0392073352468B431900EB
:1030400002920CC92800009201930C9122003B00CF
:103050005946FFF79FFB040082E6C046112D001081
:10306000F00E00203071001074710010C07100105B
:1030700041900000462800D1DBE00492072142463F
:103080000C9B0392073352468B43190002920CC9E2
:103090002800009201930C9122003B005946FFF753
:1030A00025F904005CE6631C984622003B00594663
:1030B0002520A847444653E60C9B04330D93631C1C
:1030C0009946920700D422E10C9B220018785946B9
:1030D0003B00A84743464444012B00D885E2330017
:1030E000B8462E005F4625004C46994622004346CE
:1030F000013439002020B047AC42F7D12C00BB4648
:10310000350047464E460D9B0C9329E6DB4B307845
:10311000984600239946002800D012E60024AEE627
:103120006F2800D188E000D80BE31023782800D165
:10313000CFE09A430A239C4600230F930A330D9352
:1031400080E05646B1008919490001330E181878FD
:10315000303E010030390929F4D9B2461E0001334E
:10316000994628E60C9B023602CB8A46C943504654
:10317000C917084082460C933078731C99461AE6AA
:103180001023100098431133184381468020130008
:10319000C0000340024200D1A9E64B460693082333
:1031A00005935346049310230393002302930F9B2C
:1031B000220001931CAB009359463B002800FEF708
:1031C0009FFF434604000C93CAE501235B42C3E61C
:1031D0000F9B534501D953460F930223180010400B
:1031E0000D90134200D1B7E10D93D1460B1B9A46C7
:1031F0003300A1442E0022004D460C98B9465F468C
:103200009B4608E04B463900541CB0475346185DB6
:10321000002877D022009542F4D15B46BB464F464A
:10322000A94635004C461E00C9E680231B011A43FF
:10323000FDE620231A4320E708239C4600230F9332
:1032400008330D9380231100DB0019401A4200D18E
:1032500016E10D239A431000802302009B001A40C0
:103260001492184200D0C2E1802302005B001A4091
:1032700091460C9A04320F92184200D0B7E24306EE
:1032800000D59FE1030600D419E30C9B1B8809932A
:10329000002B00D0FCE110339843002900D1F7E166
:1032A0000023994643460593534604930D9B06908D
:1032B00003930023D2E0582808D0622867D1022364
:1032C0009C4600230F9302330D93BBE720231A4340
:1032D000103B9C4600230F9310330D93B2E78023DD
:1032E0001B011A4320231A43A1E6C0239B001A4363
:1032F000F31C9946B07882E5C0231A43F31C994623
:10330000B0787CE535005E46BB464F4657E64346FF
:10331000012B00D863E1631E43449A463300B9464B
:103320002E005F4655469B46A24622004B4601347E
:1033300039002020B047AC42F7D135005E46BB468D
:103340004F46A14654460C9B4A46187859463B00C6
:103350004444A847D7E6A1460F9B984500D832E6DB
:103360004444E41A3300B8462E005F4625004C461C
:10337000994622004346013439002020B047AC4230
:10338000F7D12C00BB46350047464E461BE680234E
:103390001000DB0018401A4200D10FE11121180083
:1033A0008A430D920D9A802311009B0019408C4690
:1033B0001A4269D1802311005B00194089460C999B
:1033C00004310F911A4200D0CAE113005B0600D508
:1033D000F0E013001B0600D459E20C9B00229B5E18
:1033E000D9175A184A4092B2D90F0C91002B00D12C
:1033F000F9E1100014AA944642461F231492524643
:103400006344A84616944D460400B946B2461F00D0
:10341000159201E0202D0FD020000A21FEF738FA86
:1034200001357E193031317020000A21FEF730FA63
:1034300026000400092EEDD8149B4F46A9464546A8
:103440009846159B56469A46169C0D9B06934346F6
:103450000593534604930A2303930C9B02934B4614
:1034600001931CAB2200009359463B002800FEF755
:1034700047FE0F9B04000C9372E4C04651200010DD
:103480000C239A431000E7E607220C9B0733934373
:10349000013294469C4462460C920CCBD90F0F919A
:1034A0001100194300D191E0D917139112915140A5
:1034B000109113995940119110981199129A139BD8
:1034C000801A99411090119114AA00239446424603
:1034D0009946149252461F336344A846B246169446
:1034E0004E46109C119DB94615921F0001E0202EFA
:1034F00010D0200029000A220023FEF707FA013627
:1035000030322B00BA550D0022000400002BEED102
:10351000092AECD8149B1094119545469846159BA2
:103520004F46B14656469A46169C0D9B0693434617
:103530000593534604930A2303930F9B02934B4630
:1035400001931CAB2200009359463B002800FEF774
:10355000D7FD0400FFF704FC0F9B984500D8C1E19C
:103560008023DB000D9343460F9A1B199B1A994643
:1035700033002E004D46B9465F469B460C91220013
:103580004B46013439002020B047AC42F7D14346C6
:103590000C9901330F930B7835000C935E46BB46B4
:1035A0004F46002B00D10EE50D9B002B00D1F6E419
:1035B000002319E60C9B1B781A0015E710239A4389
:1035C0000D92EFE60C9B1B78099361E60023994668
:1035D0000028AAD1002200231092119374E70C9BBB
:1035E0002200187859463B00A8474C468BE50C9AB8
:1035F000FA3BFF3B07329A430133994691444B46CD
:103600000C931368526815921A4306D110329043F6
:1036100000220992002900D081E06122810600D5B4
:103620004122D2B20A9214AA91460A9A00210A3A79
:10363000149242461792524618925A460991B3463E
:103640001F311E000F9B4944BA4619941A95002455
:10365000674698468946159D16901B920AE03032BF
:10366000D2B24B4601341A55A8454AD0202C4AD034
:1036700006000D003A00002330002900FEF746F94D
:10368000D2B2092AEBD9149B9C466244D2B2E8E735
:103690006123820600D54123DBB20A3B0C934346EB
:1036A00014A91F228C46159353466244A046B24685
:1036B0004C461797A9461700099D0D9E1490169326
:1036C00008E03033DBB201343B55B5420ED3202C39
:1036D0000CD0050031002800FEF7DAF8CBB209293A
:1036E000EFD90C9A94466344DBB2ECE7159B4D4648
:1036F000A14644469846169B564614989A46179FEC
:10370000D0E5B742B2D9179B57469846189B5E46FC
:103710009A461B9B09949B461698199C1A9D4346F2
:103720000593534604930D9B069003930023029345
:10373000099B05E70F9B984500D914E701330F93C8
:103740002DE41023110099430D91692800D0BAE0AF
:1037500080231000DB0018401A4200D122E61DE64B
:103760000C9B1B68DA0F1100002B00D18CE0DA17DC
:103770009818504014AA914642461F23149252466C
:103780004B44A046A946169704006546B2461F0062
:103790000C91159201E0202D0FD020000A21FEF798
:1037A00077F801357E193031317020000A21FEF79B
:1037B0006FF826000400092EEDD8149B4446984665
:1037C0000C9BAC461900159B56464D469A46169FD3
:1037D0000D9B0291069343460593534604930A2397
:1037E000039363463CE6002800D02EE602E60C9BDD
:1037F0001B689946002B03D110339843002938D118
:103800006123820600D54123DBB20A3B0C93434679
:103810001693534614A91F228C4617932B0062441B
:10382000A0464D46B246189799461700149C0D9E27
:10383000159008E03033DBB201343B55B5420ED36E
:10384000202C0CD0050031002800FEF721F8CBB267
:103850000929EFD90C9A94466344DBB2ECE7169B36
:10386000149444469846179B56464D469A461598DA
:10387000189F43460593534604930D9B069003936C
:1038800000230293149BEBE50028A1D172E70C9B67
:103890001B68D9175A184A40A6E580231000DB00A0
:1038A00018409C460F901A420FD00220030013408C
:1038B0000F93104219D00023A1460F934CE50C9BA7
:1038C0001B680993E4E40A0034E402231800104062
:1038D0000D90134200D03EE54346002B00D042E657
:1038E000FFF771FB01330F937FE463460D93F3E71A
:1038F00010B50C0084B00394012402A90290009337
:10390000034813006242FFF703FA04B010BDC0463B
:10391000DD22001010B5094A0300146884B0002CA1
:1039200008D0012200910648524203A9A047012075
:1039300004B010BD00F098F90020F9E7F00E002067
:10394000CD22001000BEFDE7094A030010680028E0
:1039500005D00849C3188B4207D813607047064842
:103960000449C31810608B42F7D901204042F5E7A3
:10397000EC0E002000000420C813022010B5FFF751
:10398000E1FFC04670B5FDF783FE074D074EB54217
:1039900009D20024013E761BB60808CD98472300C3
:1039A0000134B342F9D170BDAC6C0010B86C00109A
:1039B000030010B5080011001B68984710BDC046F1
:1039C000F0B5C64600B5437D07000C001600002B7D
:1039D00046D0002A17DD0B780A2B24D00023984606
:1039E000012E13D001252900635C01350A2B26D056
:1039F000B542F8D1464509DCA419013C23780D3BBA
:103A00005A4253413B7580BCB846F0BD4346E0186E
:103A1000A419F11A013C3B68984723780D3B5A42A0
:103A200053413B75EFE7037D002BD7D102210F48AF
:103A30003B689847012EDFD001239846D2E7631EEA
:103A40005B5C0D2BD4D0884504DA4346C91AE018D4
:103A50003B689847022105483B68A8469847C7E756
:103A60000368110020009847CDE7C046207300107E
:103A7000F0B5C6460B6806000C0000B5802B06D0DA
:103A80005A1C2260E418267180BCB846F0BD0F4B6A
:103A90001D68002D16D00B1D98460D4F02E02D69B4
:103AA000002D0FD02B68002BF9D03B68002B01D0E4
:103AB000AB42F4D1280041462268FFF781FF2D690F
:103AC000002DEFD101220023DBE7C046E00E0020ED
:103AD000E80E0020F0B54546DE464E465746E0B5B6
:103AE00083B091461C0080460D00FDF72BFC00239F
:103AF000304A12184B41002B02DA01222E4B52425F
:103B00002E4908008A4603F0A3F807006B1C03D176
:103B1000404602F0F9FE0500002C27D0284E294B24
:103B20001C68002C18D04B46002B21D1264B9946FF
:103B300002E02469002C0FD02368002BF9D04B46FB
:103B40001B68002B01D09C42F3D120002A00414683
:103B5000B0472469002CEFD1002F26D1280003B0F4
:103B6000F0BCBB46B246A946A046F0BD174ED6E70C
:103B7000154B99460A239B4602E02469002CEBD0A2
:103B80002368002BF9D04B461B68002B01D0A342C1
:103B9000F3D12A0041462000B0476B465A46200028
:103BA000DA71D91D0122B047E7E7504603F038F833
:103BB000D4E7C04640420F00FFFFFF7F68090020A6
:103BC000C1390010E00E0020E80E0020B1390010CD
:103BD00000207047F0B5CE46474680B583B06B46AF
:103BE0000600DD1D2870FDF7ADFB0023194A1218F1
:103BF0004B41002B02DA0122174B524217490800B1
:103C0000884603F025F8164B81461C68002C14D01A
:103C1000144F02E02469002C0FD02368002BF9D048
:103C20003B68002B01D09C42F4D1200001222900E6
:103C3000FFF7C6FE2469002CEFD14B46002B05D1BF
:103C4000300003B0C0BCB946B046F0BD404602F0FB
:103C5000E7FFF5E740420F00FFFFFF7F6809002004
:103C6000E00E0020E80E002070B5040002F04CFECB
:103C700001230100050001222000FFF72BFF084B64
:103C80001C68002C06D06368002B05D09847246977
:103C9000002CF8D1280070BD2469002CF3D1F9E77D
:103CA000E00E0020F0B5CE46474680B5A3B0040034
:103CB0000D00FDF747FB0023274A12184B41002B4C
:103CC00002DA0122254B5242254E300002F0C0FF9D
:103CD00000232200019307002B00224801A9FFF7CF
:103CE00007FE214B804699461C68019B002B1AD089
:103CF000002C2FD01D4D02E02469002C0FD023682A
:103D0000002BF9D02B68002B01D0A342F4D1200066
:103D1000019A02A9FFF754FE2469002CEFD14B460B
:103D20001C6800230193002C06D06368002B0BD085
:103D300098472469002CF8D1002F07D1404623B0C2
:103D4000C0BCB946B046F0BD2469ECE7300002F0D3
:103D500067FFF3E70194EFE740420F00FFFFFF7FAB
:103D600068090020713A0010E00E0020E80E0020E3
:103D70000FB400B583B004A901C90191FFF792FF08
:103D800003B008BC04B01847F0B5DE4657464E46AF
:103D9000454690460022E0B585B01E000EAB1B786C
:103DA00007009B460368DA6601325960DA66002E26
:103DB00060DD027959469202924601224A4052023F
:103DC0009446802291465A46802403926246BB461E
:103DD000002010214746B446751EA4000192421BE4
:103DE000160072427241019E5242164002963E5C9B
:103DF000B0465646424616433200029E16431E61A6
:103E0000019E5A6B1142FCD04A469A58019692463E
:103E1000002A0AD1A84228D00022013092468445C7
:103E2000DDD1039B5F469B4616E05A6D012290460A
:103E30005A6B2242FCD01A6E42460196002AEBD001
:103E4000039B5F469B465346002B15D05346DB072A
:103E500012D453461B070FD55B463B7105B0F0BC2F
:103E6000BB46B246A946A046F0BD039A002AD3D16C
:103E70009046DDE70020EFE701204042ECE7C04636
:103E8000F8B5DE4657464E4645468346E0B5052022
:103E90000C00FDF74FFB0600600821008019FDF7BC
:103EA000F7FC430098468044070005214046FDF793
:103EB000EFFC3B1A9A461E4B8146700080199C42CB
:103EC00031D81C49FDF7E4FC451C5B461C68002307
:103ED000E366226804335A400233134080225201C1
:103EE000A21813605346E3614B4623624346012008
:103EF0004F2B03D950214046FDF7CAFCA023E050C8
:103F0000E36F39005D400C4B2D042D0CE3181D6050
:103F100001233000E366FDF7BBFCF0BCBB46B246B4
:103F2000A946A046F8BD0549FDF7B2FC451CCCE703
:103F30003F420F00809698007C10000040787D0181
:103F40000F4A70B5821A531E9A410E4BD2000832A6
:103F50001A600D4B0D4C1A60150023689D432B1EF3
:103F6000FAD166240268FF340571D5661460633C9B
:103F70008833FF3CD5639563D450FFF781FF70BD54
:103F8000F803002000E0004000F0004008C00040BE
:103F900010B582B06C46247C0094FFF7F5FE02B0A9
:103FA00010BDC0467047C046000000000000000081
:103FB0000B4A13681868203080F30988022080F3C8
:103FC0001488BFF36F8F3FBCAE4608BC04BC62B61A
:103FD0001847C046C046C046C046C046C046C04658
:103FE000240F00200000000000000000000000007E
:103FF000EFF30980164B1A6820381060F0C0444671
:104000004D4656465F46F0C00D221207146E556E9F
:10401000566F176F3038F0C008B572B601F062FB0A
:1040200062B60CBC116808681030F0C8A046A946FA
:10403000B246BB4680F309880D2212073038F0C81B
:104040001466556656671767F0C81847C046C046DD
:10405000240F002010B5FCF789FDC04610B5802460
:10406000031F64041C60043B19600349043B19608E
:10407000143B40381A6010BD554000108022044B9C
:1040800052051A60BFF34F8FBFF36F8F7047C04662
:1040900004ED00E072B6044A136801331360BFF305
:1040A0004F8FBFF36F8F7047D4120220094A1368F5
:1040B000013B1360002B0CD1074A1168002907D07F
:1040C00006480068BFF35F8F0B6080F310881360B1
:1040D00062B67047D4120220BC110020D012022018
:1040E000EFF3108072B6704780F310887047C046B7
:1040F00010B5FFF7F5FF040001F0E2FA002803D045
:104100008022034B52051A602000FFF7EDFF10BD1F
:1041100004ED00E0002310B5084A094C0520236097
:104120001360FDF707FAFA218900FDF7B1FB054B93
:10413000013818600723236010BDC04618E000E076
:1041400010E000E014E000E0FF22134B12041968B5
:1041500010B50A431A60FF22196812060A431A6052
:104160000E490E2001F056FF0D490F2001F052FFBD
:104170000C490B2001F04EFFFFF7CCFF00220A4B49
:104180001A60D0221206094B12681A70FFF710FF4E
:1041900001F0A8FAFCF7EAFC20ED00E0F13F001086
:1041A000F1400010A53F0010D412022000040020AE
:1041B000D02310B51B061868074B1B78834200D02C
:1041C00010BDEFF30583002B02D05B00C018F7E7AA
:1041D00001F0C0FCF4E7C0460004002000B5144A1A
:1041E00003681078D0221206126883B0904208D07B
:1041F000BFF35F8F00221A6081F3108820BF03B0E5
:1042000000BD0C4A13600C4A11600C4A022194460E
:1042100063449B10FF319940094B01221868012328
:104220005B420093090A002300F022F9E7E7C04649
:1042300000040020BC110020D012022000FFFF2F3C
:104240003C13022000B51B4A0B001178D022120645
:10425000126883B0914209D040BF0268BFF35F8FFC
:104260000021116083F3108803B000BD02210068B3
:10427000114AFF31821892109140090ABFF35F8FF3
:104280000022026083F31088EFF305830B48DBB252
:104290000068002B0BD0019201AA00F08FF9019B5E
:1042A000002BE1D08022064B52051A60DCE700F0BB
:1042B0003BF9D9E70004002000FFFF2F3C13022048
:1042C00004ED00E0F0B5CE46474680B51D00324B08
:1042D00014001A78D0231B061B688046894683B0D9
:1042E0009A420FD00368BFF35F8F00221A6081F3F8
:1042F000108820002900FCF78DFF03B0C0BCB94630
:10430000B046F0BDFDF71EF826002F00361A8F418B
:104310000121224849428019794143461E680029FB
:104320001EDC19D0BFF35F8F0023336089F3108840
:104330001B4B5A6A954205D89B6A0120A342DCD2E6
:104340009542DAD18022174B52051A60BFF34F8F86
:10435000BFF36F8F0020D0E7FA239B009842E1D390
:10436000FA2200239200FDF7B9FA031EDAD049467B
:104370000D4A16600D4A11600D4A022194466644AA
:10438000B610FF31B1400B4A090A106800930122B0
:10439000002300F06DF8CBE70004002018FCFFFFBD
:1043A0000040054004ED00E0BC110020D0120220C6
:1043B00000FFFF2F3C13022010B500F04DF8014B19
:1043C000186010BD3C130220F8B5DE4657464E4635
:1043D0004546E0B505000F00060001F061F82968C8
:1043E0002C6939430C362960A6422CD0002398460C
:1043F0008023DB049B4680235B049A4680239B0436
:1044000099460FE06746002F0AD057463A4202D03D
:1044100042461A4390464B46194301F005FB296872
:10442000A6420ED020000F000268646813021B0A27
:104430001F40BC465F463A42E4D06345E5D0A64201
:10444000F0D143469943296001F032F8F0BCBB46F5
:10445000B246A946A046F8BD10B51C2001F0FEFDED
:10446000041E03D0002308C000F0B4F8200010BDE3
:10447000F0B5C6460D00060000B51F00904601F0DD
:104480000FF82B0034682340002F0DD1002B28D0CB
:104490004346002B28D02300AB43336001F008F8DB
:1044A000200080BCB846F0BD9D42F1D0069B002B99
:1044B0001AD0434680215A1E9341C9041B06194352
:1044C000069A2943301D01F08DF900F0F1FF002814
:1044D00024D001F077FB040083010DD52402240AC7
:1044E000DEE7069B002B02D100F0E2FFD8E7414651
:1044F0004B1E99410906E3E7FFF7CCFD3468230022
:104500002B40002F0DD1002B05D04346002B02D0AD
:104510002300AB433360FFF7C9FDDFE7FFF7AEFDD4
:10452000D7E7AB42F7D1F0E7F8B5DE4657464E463F
:104530004546E0B505000F00060000F0B1FF296810
:104540002C6939430C362960A6422CD000239846AA
:104550008023DB049B4680235B049A4680239B04D4
:1045600099460FE06746002F0AD057463A4202D0DC
:1045700042461A4390464B46194301F055FA2968C2
:10458000A6420ED020000F000268646813021B0AC6
:104590001F40BC465F463A42E4D06345E5D0A642A0
:1045A000F0D143469943296000F082FF2868F0BCAF
:1045B000BB46B246A946A046F8BDC04610B5044C5D
:1045C00013000A000100200001F00EFD10BDC046DE
:1045D000C94300100300083301224360C360036134
:1045E00000235242826003607047C046002303618B
:1045F0007047C046030030B50D6808336A1C0DD003
:104600001C005B681A68AA42FAD94B60996003687B
:104610008C60013361600861036030BD04696368C8
:10462000F3E7C0460369416882688A60516059684F
:10463000814206D0002202611A68013A1A601868A5
:1046400070475A60F6E7C046F0B5DE464E4657461C
:104650004546E0B585B00600FFF71CFD4523F45C38
:1046600064B2002C21DD213B994621339A46B144A6
:1046700009E0AA6BEB6B03969A4245D3013CE3B287
:1046800064B2002B11D0B56C002DF2D1736A002BEF
:104690000BD0484601F062F90028EFD001F054FA3F
:1046A000013CE3B264B2002BEDD14523FF22F2546A
:1046B000FFF7FCFCFFF7EEFC44233500F45C1035FB
:1046C00064B2002C05DC13E0013CE2B264B2002AC3
:1046D0000ED03369002B0BD0280001F03FF90028E1
:1046E000F2D0013C01F030FAE2B264B2002AF0D11B
:1046F0004423FF22F254FFF7D9FC05B0F0BCBB46BF
:10470000B246A946A046F0BD5346EF5CAB6B2A6C9F
:10471000013398467FB2002A13D12B689B46002BA9
:104720002AD04346AB637B1C1CD16B6A002BA5D0FF
:104730002800243001F012F900289FD001F004FA7B
:10474000AEE7686803A9FDF77DFC6B682A6C9B18CF
:10475000AA686B609342E4D32B686B604346AB63FB
:104760007B1CE2D000F0A6FFB84200D886E7534693
:1047700001377FB2EF5481E7A86801F0F1F95B4699
:10478000AB6043460190AB637B1C09D16B6A002B85
:104790000FD1019B002B00D170E701F0D5F97FE725
:1047A00000F088FFB842F4D9534601377FB2EF5486
:1047B000EFE72800243001F0D1F8002800D06DE7A1
:1047C000E7E7C046F0B5C64600B5846C82B0A26B80
:1047D000E36B002501909A4204D3280002B080BC0C
:1047E000B846F0BD4523226CE65CA76B76B2002A82
:1047F0001CD0606801A9FDF725FC6368226C9B183A
:10480000A2686360934201D3236863600025013787
:10481000A763731C15D1636A002BDED020002430FF
:1048200001F09CF80028D8D00125D6E723689846E7
:10483000002BEBD1A06801F093F943460500A3607B
:10484000E5E700F037FF8642C7D24523013676B24E
:10485000E654C2E7F8B505000E001700002841D065
:10486000030C0A0C002B42D1002A30D130006843DF
:104870000300553336D8543001F0F0FB041E31D01C
:104880000300002E31D12360E5632664FFF702FCAC
:10489000216CE36B22684B43D0185B1A6260D2181C
:1048A000E260FF2300254422A0602000A563A354FA
:1048B0000132A3541030FFF78DFE20002430FFF7A3
:1048C00089FEFFF7F3FB5023E754A5640BE0131CAC
:1048D000A9B2B2B24A4380B29BB24343120C9B18B6
:1048E0001B0CC3D000242000F8BD5433CBE7002AB2
:1048F000F8D1081CECE7C046F0B5CE46474680B577
:1049000085B00400884699460192022B00D19DE0B3
:10491000FFF7C0FBA36BE26B0027442500269A42F9
:1049200032D8019B002B64D0002F5ED0FFF7BEFB76
:1049300000F0B6FDFFF7AEFB635D5BB2013300D163
:1049400066554523E25C52B2013200D1E654FFF7CE
:10495000ADFB01A902A801F0BDF8002800D06FE06E
:10496000FFF798FBA26BE36B9A422CD0FFF79EFBFC
:104970002000FFF769FE00F09BFD0127FFF78AFB8F
:10498000A36BE26B9A42CCD9226CA66BA56B002A72
:1049900037D1236800209846002B00D183E0A36C18
:1049A0000135A563002B00D170E04B46022B01D1ED
:1049B000002E04D12000FFF705FF00283DD1FFF7AE
:1049C00075FB012018E0FFF771FB20000199103002
:1049D00000F0BEFE2000FFF737FE00F069FD002862
:1049E000CBD1FFF74BFB0127C8E702A801F066F81F
:1049F0009CE7FFF75BFB002005B0C0BCB946B046A2
:104A0000F0BD4B46002B29D141466068FDF71AFBEB
:104A10006368226CA16C9B18A268636001359342A5
:104A20003AD2A5630029C5D1636A002BC7D0200004
:104A3000243000F093FF0028C1D0FFF71FFBBEE732
:104A40002000FFF701FE00F033FDD4E7FFF722FB63
:104A5000226CA36BA66BA56B002A9AD04146E06836
:104A6000FDF7F0FA226CE36851429B1A2268E3607A
:104A7000934202D2A3685B18E3604A46A36C022A01
:104A800017D00135A563002B94D1CDE7636A002BC5
:104A9000CDD10028D1D192E72368A56363600029B6
:104AA00000D087E7C0E7A06801F05AF84346A3604A
:104AB00075E7002D04D0A563002B00D078E7B3E79D
:104AC0000122A263002B00D072E7ADE7F8B557468C
:104AD000DE464E4645460400E0B592461D000F00F6
:104AE000FFF7FEFAA26BE36B06009A423BD300236A
:104AF0009846022D09D03000FFF7F6FA4046F0BC88
:104B0000BB46B246A946A046F8BD4533E35C226CDD
:104B10005BB29846A36B9B46A36B9946002A2DD0A7
:104B20003900E068FDF78EFA226CE36851429B1A67
:104B30002268E360934202D2A3685B18E3604B46AD
:104B4000022D51D00133A363434601333DD000F021
:104B5000B1FD804504D24346452201335BB2A354E4
:104B600001239846C7E74523E35C226C5BB2984675
:104B7000A36B9B46A36B9946002A11D12768002F8F
:104B800046D04B460133A36343460133DFD1A36CC8
:104B9000002B33D0022D1BD15B46002B18D0DFE752
:104BA000002DBDD139006068FDF74CFA49466368B5
:104BB000226C01319B18A2686360934201D3236881
:104BC00063604346A1630133C1D1A36C002B15D0B0
:104BD0002000FFF7F7FD0028C2D05346002BBFD0BE
:104BE000012352461360BBE7002B00D10123A363CE
:104BF00043460133ABD1A36C002BCDD1636A002BAC
:104C0000AED02000243000F0A9FE0028E5D1A7E7AF
:104C1000A06800F0A5FFA760B3E7C046F0B547461F
:104C2000CE46040080B585B088460192FFF732FA7F
:104C3000A76B002F5ED1019B002B3BD002A800F098
:104C40003DFF0023442699464525FFF72FFA00F043
:104C500027FCFFF71FFAA35D5BB2013301D14B467E
:104C6000A355635D5BB2013301D14B466355FFF73A
:104C70001DFA01A902A800F02DFF002822D1FFF79C
:104C800009FAA36B002B2AD1FFF710FA2000019933
:104C9000243000F05DFD2000FFF7D6FC00F008FC9A
:104CA000002824D0FFF7F6F9A76B002F22D1019B33
:104CB000002BCAD1FFF7FAF9002005B0C0BCB946F5
:104CC000B046F0BD2000FFF7BFFC00F0F1FBFFF79E
:104CD000E1F9A36B002BEDD0FFF7E8F9E2E7FFF76E
:104CE000E5F92000FFF7B0FC00F0E2FBDAE7FFF7A0
:104CF000C5F9D7E7226C002A08D0E168A3688918B3
:104D0000E16099420BD24046FDF79CF97B1EA363FC
:104D10002369002B06D1FFF7C9F90120CDE72168EF
:104D2000E160F0E72000103000F018FE0028F2D01B
:104D3000FFF7A4F9EFE7C04610B5002933D0424B86
:104D40005A68904200D173E01A68002A2CD0DA68C1
:104D5000904200D176E09A68002A3ED05A6990428B
:104D600000D16DE01A69002A3DD0DA69904261D025
:104D70009A69002A3DD05A6A904242D01A6A002AA3
:104D800043D0DA6A904257D09A6A002A43D05A6BCD
:104D9000904253D01A6B002A43D0DA6B904245D030
:104DA0009A6B002A2AD010BDDA6890424AD05A691C
:104DB000904245D01A00DC69A0423BD05C6AA04218
:104DC0001FD0DC6AA04237D05C6BA04236D0DC6BCF
:104DD000A0422BD011605060E5E75A6990422FD075
:104DE0001A000832E7E7DA69904223D01A0010323D
:104DF000E4E75A6A904204D0144AE2E738331A00D2
:104E0000E8E70422D2009A18E4E7DA6A904213D065
:104E10001A002032D8E75A6B90420FD01A0028327D
:104E2000D5E71A00DC6B3032A042D3D10722E9E784
:104E30000022E7E70322E5E70522E3E70622E1E7B0
:104E40000222DFE70122DDE7F00B0020080C002042
:104E500070B5040016000D00FFF71CF94422A35C96
:104E60005BB2013301D10023A3544522A35C5BB2A2
:104E7000013301D10023A354FFF718F9A36B002BD2
:104E800003D02000FFF7E0FB70BD200032002900B6
:104E9000243000F003FDF4E7F0B5C646124B00B530
:104EA0009846124D124F134E14E0FFF7F3F8FB68CB
:104EB000DC68201DFFF7B6FB3368013B33602B68CD
:104EC000013B2B60FFF7F2F8206B01F081F9200025
:104ED00001F07EF92B68002BE7D143461B68012BBC
:104EE000F8D9FFF7CBF8F5E73C0F0020DC120220E1
:104EF00098130220D8120220F0B5DE4657464E46DF
:104F00004546584BE0B51A6883B0013294461A60A2
:104F1000002A5FD054490B689C4570D3534B994687
:104F20001B681B68002B00D197E000239846504B6C
:104F3000504E9B46504B01919A4639E000215961F1
:104F40001168013911609A6A002A0ED0D969186A6D
:104F5000556888604160190018318D4200D172E0B7
:104F6000002199621168013911605246D96A1268AC
:104F7000914201D9524611608A0052189200B51828
:104F8000686887689860DF607C6084605D61B358A2
:104F90000133B3505B461B684246DB6A8B429B4140
:104FA0005B421A434B461B6890461B68002B4FD050
:104FB0004B461B68DB68DB685A68944545D35A69E1
:104FC0009868D9681C1D816048605068A042B5D1BE
:104FD0005160B3E7254B294A1968106818601160C1
:104FE00027490A6801320A601A681268002A24D127
:104FF00001231D495B420B600B689C458ED2002348
:1050000098461B4B1B4E9B465B461B68DA6A930017
:105010009B189B00F2581B4B1868431E98410123B4
:1050200093429B415B4218434346184303B0F0BC94
:10503000BB46B246A946A046F0BD1B680A49DB68DC
:105040001B680B6067E750608AE701990A60DBE73D
:10505000019901235B420B60D6E79846044B054E4D
:105060009B46F6E7AC130220501302202C0F0020C1
:10507000240F00203C0F0020E8120220340F0020F3
:1050800054130220B8130220F8B5CE4647469600C6
:1050900080B5804630000D00994600F0DFFF071E06
:1050A00000D1C5E0702000F0D9FF041E00D1BCE0A3
:1050B00070220021FCF7C0FF320038002763A521D1
:1050C000FCF7BAFF0723276B043EBF199F43002D4F
:1050D0004BD034222B78A354002B43D06B78013271
:1050E000A354002B3ED0AB780132A354002B39D00F
:1050F000EB780132A354002B34D02B790132A35426
:10510000002B2FD06B790132A354002B2AD0AB791E
:105110000132A354002B25D0EB790132A354002B8C
:1051200020D02B7A0132A354002B1BD06B7A013292
:10513000A354002B16D0AB7A0132A354002B11D00C
:10514000EB7A0132A354002B0CD02B7B0132A354F9
:10515000002B07D06B7B0132A354002B02D04223DB
:10516000AA7BE25443230022E254089D1F2D5AD803
:10517000261D3000E562E564FFF738FA200018309C
:10518000FFF734FA20235B1BA3614A4641463800EF
:1051900024616462FEF762FF099B2060002B00D04F
:1051A0001C60FEF777FF3B4A1368013313603A4BEC
:1051B00098461B68002B3ED0384DE26A2B68002BC6
:1051C00006D143461B68DB6A934201D843461C6004
:1051D000334F34490B6801330B606364324B1968F9
:1051E000914200D21A6093009B189B00F9184A68FC
:1051F0009068A260E06046609660FA586161013292
:10520000FA50FEF753FF2B68002B07D043461B686C
:10521000DA6AE36A9A4201D2FEF730FF0120C0BC8D
:10522000B946B046F8BD1F25A2E7380000F0D0FF10
:1052300001204042F3E743461C601368012B03D072
:10524000E26A174F154DC4E7A023154F9B009946FE
:105250003D00B94428001435FFF7BCF9A945F9D140
:10526000124B99461800FFF7B5F9114D2800FFF7CA
:10527000B1F91048FFF7AEF90F48FFF7ABF90F4847
:10528000FFF7A8F94A460E4B1A600E4BE26A1D6002
:10529000024D9EE7D8120220240F0020781302202E
:1052A0003C0F0020E4120220E81202201413022016
:1052B0002813022064130220981302208413022072
:1052C0002C0F0020340F0020F8B58020CE46474632
:1052D000C00080B500F0C2FE051E75D0702000F041
:1052E000BDFE041E00D175E070220021FCF7A4FE73
:1052F0008022A52128002563D200FCF79DFEFF2314
:105300009B009C460723256B382265449D43514BE7
:10531000271D63630023A3540B32A3543800E362B8
:10532000E364FFF763F920001830FFF75FF92023EB
:1053300000224949A361280024616462FEF78EFEC1
:10534000464B20601C60FEF7A5FE454A13680133FA
:105350001360444B98461B68002B3FD0424DE26AD5
:105360002B68002B06D143461B68DB6A934201D8A9
:1053700043461C603D4E3E490B6801330B6063643D
:105380003C4B1968914200D21A6093009B189B0015
:10539000F1184A689068A260E06047609760F25830
:1053A00061610132F250FEF781FE2B68002B07D0BD
:1053B00043461B68DA6AE36A9A4201D2FEF75EFE50
:1053C00000F0CCFD012812D02B4B1B68C0BCB946A5
:1053D000B046F8BD280000F0FBFEF5E743461C6030
:1053E0001368012B0FD0E26A204E1F4DC3E772B63F
:1053F0000122224B52421A600022214B28601A607F
:10540000FEF7A2FEE0E7A023184E9B009946350068
:10541000B14428001435FFF7DDF84D45F9D1194B9B
:1054200099461800FFF7D6F8174D2800FFF7D2F875
:105430001648FFF7CFF81648FFF7CCF81548FFF7E6
:10544000C9F84A46144B1A60144BE26A1D60064DB7
:1054500091E7C04649444C45994E00104413022040
:10546000D8120220240F0020781302203C0F0020C5
:10547000E4120220E81202202473001050130220CC
:10548000AC130220141302202813022064130220FC
:1054900098130220841302202C0F0020340F0020C8
:1054A000024A1368013313607047C046E0120220BD
:1054B000F0B5DE4657464E464546E0B583B0FEF7AA
:1054C000E9FD514C2368013B23602368002B7FD109
:1054D0004E4B1B68002B7BD04D4B9C461B68002B12
:1054E00000D18EE04B4B4C4D98464C4B0194994665
:1054F0004B4B9A4600239B466346DB68DB68D869C2
:10550000196A9A6A816048601800566818308642A5
:1055100000D170E0594699621168013911605A69E9
:105520009868D968566881604860181D864260D0C6
:105530001168013911604146DA6A09688A4201D965
:1055400041460A60910089188C002E1971688F6895
:105550009960DF60786088605E612B5901332B5160
:105560004B461B68DB6A9A423DD3534601221A60C0
:1055700063461B68002BBFD12A4B019C1A68126836
:10558000002A3AD01B68DB681A68274B1A60274E3E
:105590003568002D14D0012708E0FFF7ADFC002886
:1055A00001D053461F60013D002D08D02368002B19
:1055B000F3D03368013D01333360002DF6D13560FF
:1055C00053461B68002B03D0FEF758FD012400E072
:1055D0000024FEF76BFD200003B0F0BCBB46B246D2
:1055E000A946A046F0BD63461B68002B00D083E7A8
:1055F000C2E751609CE751608CE70B4B013A1A609F
:10560000C5E7074B9A46C2E7E0120220D8120220F3
:1056100064130220E81202203C0F0020240F002017
:10562000B81302202C0F0020501302206013022018
:1056300070B5041E1DD0164A136801331360154B54
:1056400000211E686D23144DA4192A682868D154BE
:105650000430FEF7E7FF2B685C60A6420CD90F4BC5
:10566000186829680431FEF7C5FFFFF721FF0028FD
:1056700001D1FEF703FD70BD094B1868296804319C
:10568000FEF7B8FF074B1A689442EED21C60ECE7B5
:10569000E0120220AC130220240F0020340F00205F
:1056A0002C0F002050130220014B18687047C04691
:1056B000AC130220014B18687047C046D812022074
:1056C000064B10B51B68002B02D1FFF715FC10BD6F
:1056D000034A0020136801331360F8E7E012022048
:1056E00060130220154B30B51B68002B03D001223C
:1056F000134B1A6030BD124A124C136023681248D3
:1057000000E0013B9900CA1892008258002AF8D0A4
:10571000C918890045186A680831526840186A60DB
:10572000824204D0D168094A11602360E2E75268DE
:10573000D1686A60054A11602360DBE7E01202204D
:10574000B8130220E81202203C0F0020240F002092
:1057500070B51E4D0C0029681831FEF74BFF1C4B2D
:1057600000211E686D232A682868D1540430FEF792
:1057700059FF631C17D02B68A4195C60A64206D998
:10578000144B186829680431FEF734FF70BD124BC2
:10579000186829680431FEF72DFF104B1A689442EF
:1057A000F4D21C60F2E70E4B29685A688A60906850
:1057B0002968C86029680431416029680431916012
:1057C0002A6853611A6801321A60DFE7240F00204B
:1057D000AC130220340F00202C0F002050130220A5
:1057E00084130220802370B5264C15001B06226806
:1057F0000B439361226843689968D3612268116200
:10580000226818324A602268002118329A602368A0
:1058100098620368013303601B4B1E686D23226886
:105820002068D1540430FEF7FDFE6B1C17D02368AE
:10583000AD195D60AE4206D9144B18682168043179
:10584000FEF7D8FE70BD124B186821680431FEF7D0
:10585000D1FE104B1A689542F4D21D60F2E70E4B50
:1058600021685A688A6090682168C860216804319C
:105870004160216804319160226853611A680132E5
:105880001A60DFE7240F0020AC130220340F002041
:105890002C0F0020501302208413022070B5294CD5
:1058A00043680D0021689E68CB6121680E62216803
:1058B0001831716021681831996023689862036813
:1058C00001330360204B002A1BD01B6800216D238D
:1058D00022682068D1540430FEF7A4FE1B4B2168D7
:1058E0005A688A6090682168C86021680431416004
:1058F000216804319160226853611A6801321A608C
:1059000070BD1E686D2321682068CA540430FEF7FC
:1059100089FE2368AD195D60AE420BD80C4B186848
:1059200021680431FEF766FE0A4B1A689542E7D2F9
:105930001D60E5E7084B186821680431FEF75AFE40
:10594000DEE7C046240F0020AC130220841302209F
:105950002C0F002050130220340F0020C368F0B534
:10596000DB68D869196A9A6A8160486018005468CF
:105970001830844241D000219962116801391160C8
:10598000234AD96A1268002A29D15A699C68D868C2
:105990001D1DA06044605468AC4230D010680138CE
:1059A00010601C4A1068884225D38A001A48521891
:1059B000920086187468A7689C60DF607D60A560AF
:1059C0005E61835801338350144B00201B68DB6AEF
:1059D0008B4203D20122124B01301A60F0BD114AF2
:1059E0005468A568DC611D626860A0609A621368F3
:1059F00001331360E8E71160D7E75160BBE75060FF
:105A0000106801381060034A10688842CDD2F2E76E
:105A1000E0120220E81202203C0F0020240F002098
:105A2000B81302206413022080231B06F0B502691C
:105A300044680B4381680360C368A1604C6054688C
:105A400084422ED0002101611168986801391160EB
:105A50005A69D9681D1D816048605068A84222D0EB
:105A60001168D86A01391160104A1168884200D95A
:105A7000106082000E49121892008E187468A76890
:105A80009C60DF607D60A5605E618B5801338B5048
:105A9000084B1B68DB6A984202D90122064B1A6048
:105AA000F0BD5160CEE75160DAE7C046E81202204F
:105AB0003C0F0020240F0020B8130220034B1B686A
:105AC0000360034B1B6843607047C04654130220B9
:105AD000AC130220F0B5C64600B50E000700FEF775
